{
  "contractName": "VideoNFT",
  "abi": [
    {
      "inputs": [],
      "stateMutability": "nonpayable",
      "type": "constructor"
    },
    {
      "inputs": [
        {
          "internalType": "address",
          "name": "sender",
          "type": "address"
        },
        {
          "internalType": "uint256",
          "name": "tokenId",
          "type": "uint256"
        },
        {
          "internalType": "address",
          "name": "owner",
          "type": "address"
        }
      ],
      "name": "ERC721IncorrectOwner",
      "type": "error"
    },
    {
      "inputs": [
        {
          "internalType": "address",
          "name": "operator",
          "type": "address"
        },
        {
          "internalType": "uint256",
          "name": "tokenId",
          "type": "uint256"
        }
      ],
      "name": "ERC721InsufficientApproval",
      "type": "error"
    },
    {
      "inputs": [
        {
          "internalType": "address",
          "name": "approver",
          "type": "address"
        }
      ],
      "name": "ERC721InvalidApprover",
      "type": "error"
    },
    {
      "inputs": [
        {
          "internalType": "address",
          "name": "operator",
          "type": "address"
        }
      ],
      "name": "ERC721InvalidOperator",
      "type": "error"
    },
    {
      "inputs": [
        {
          "internalType": "address",
          "name": "owner",
          "type": "address"
        }
      ],
      "name": "ERC721InvalidOwner",
      "type": "error"
    },
    {
      "inputs": [
        {
          "internalType": "address",
          "name": "receiver",
          "type": "address"
        }
      ],
      "name": "ERC721InvalidReceiver",
      "type": "error"
    },
    {
      "inputs": [
        {
          "internalType": "address",
          "name": "sender",
          "type": "address"
        }
      ],
      "name": "ERC721InvalidSender",
      "type": "error"
    },
    {
      "inputs": [
        {
          "internalType": "uint256",
          "name": "tokenId",
          "type": "uint256"
        }
      ],
      "name": "ERC721NonexistentToken",
      "type": "error"
    },
    {
      "inputs": [
        {
          "internalType": "address",
          "name": "owner",
          "type": "address"
        }
      ],
      "name": "OwnableInvalidOwner",
      "type": "error"
    },
    {
      "inputs": [
        {
          "internalType": "address",
          "name": "account",
          "type": "address"
        }
      ],
      "name": "OwnableUnauthorizedAccount",
      "type": "error"
    },
    {
      "anonymous": false,
      "inputs": [
        {
          "indexed": true,
          "internalType": "address",
          "name": "owner",
          "type": "address"
        },
        {
          "indexed": true,
          "internalType": "address",
          "name": "approved",
          "type": "address"
        },
        {
          "indexed": true,
          "internalType": "uint256",
          "name": "tokenId",
          "type": "uint256"
        }
      ],
      "name": "Approval",
      "type": "event"
    },
    {
      "anonymous": false,
      "inputs": [
        {
          "indexed": true,
          "internalType": "address",
          "name": "owner",
          "type": "address"
        },
        {
          "indexed": true,
          "internalType": "address",
          "name": "operator",
          "type": "address"
        },
        {
          "indexed": false,
          "internalType": "bool",
          "name": "approved",
          "type": "bool"
        }
      ],
      "name": "ApprovalForAll",
      "type": "event"
    },
    {
      "anonymous": false,
      "inputs": [
        {
          "indexed": false,
          "internalType": "uint256",
          "name": "_fromTokenId",
          "type": "uint256"
        },
        {
          "indexed": false,
          "internalType": "uint256",
          "name": "_toTokenId",
          "type": "uint256"
        }
      ],
      "name": "BatchMetadataUpdate",
      "type": "event"
    },
    {
      "anonymous": false,
      "inputs": [
        {
          "indexed": false,
          "internalType": "uint256",
          "name": "_tokenId",
          "type": "uint256"
        }
      ],
      "name": "MetadataUpdate",
      "type": "event"
    },
    {
      "anonymous": false,
      "inputs": [
        {
          "indexed": true,
          "internalType": "address",
          "name": "previousOwner",
          "type": "address"
        },
        {
          "indexed": true,
          "internalType": "address",
          "name": "newOwner",
          "type": "address"
        }
      ],
      "name": "OwnershipTransferred",
      "type": "event"
    },
    {
      "anonymous": false,
      "inputs": [
        {
          "indexed": true,
          "internalType": "address",
          "name": "from",
          "type": "address"
        },
        {
          "indexed": true,
          "internalType": "address",
          "name": "to",
          "type": "address"
        },
        {
          "indexed": true,
          "internalType": "uint256",
          "name": "tokenId",
          "type": "uint256"
        }
      ],
      "name": "Transfer",
      "type": "event"
    },
    {
      "inputs": [
        {
          "internalType": "address",
          "name": "to",
          "type": "address"
        },
        {
          "internalType": "uint256",
          "name": "tokenId",
          "type": "uint256"
        }
      ],
      "name": "approve",
      "outputs": [],
      "stateMutability": "nonpayable",
      "type": "function"
    },
    {
      "inputs": [
        {
          "internalType": "address",
          "name": "owner",
          "type": "address"
        }
      ],
      "name": "balanceOf",
      "outputs": [
        {
          "internalType": "uint256",
          "name": "",
          "type": "uint256"
        }
      ],
      "stateMutability": "view",
      "type": "function"
    },
    {
      "inputs": [
        {
          "internalType": "uint256",
          "name": "tokenId",
          "type": "uint256"
        }
      ],
      "name": "getApproved",
      "outputs": [
        {
          "internalType": "address",
          "name": "",
          "type": "address"
        }
      ],
      "stateMutability": "view",
      "type": "function"
    },
    {
      "inputs": [
        {
          "internalType": "address",
          "name": "owner",
          "type": "address"
        },
        {
          "internalType": "address",
          "name": "operator",
          "type": "address"
        }
      ],
      "name": "isApprovedForAll",
      "outputs": [
        {
          "internalType": "bool",
          "name": "",
          "type": "bool"
        }
      ],
      "stateMutability": "view",
      "type": "function"
    },
    {
      "inputs": [],
      "name": "name",
      "outputs": [
        {
          "internalType": "string",
          "name": "",
          "type": "string"
        }
      ],
      "stateMutability": "view",
      "type": "function"
    },
    {
      "inputs": [],
      "name": "owner",
      "outputs": [
        {
          "internalType": "address",
          "name": "",
          "type": "address"
        }
      ],
      "stateMutability": "view",
      "type": "function"
    },
    {
      "inputs": [
        {
          "internalType": "uint256",
          "name": "tokenId",
          "type": "uint256"
        }
      ],
      "name": "ownerOf",
      "outputs": [
        {
          "internalType": "address",
          "name": "",
          "type": "address"
        }
      ],
      "stateMutability": "view",
      "type": "function"
    },
    {
      "inputs": [],
      "name": "renounceOwnership",
      "outputs": [],
      "stateMutability": "nonpayable",
      "type": "function"
    },
    {
      "inputs": [
        {
          "internalType": "address",
          "name": "from",
          "type": "address"
        },
        {
          "internalType": "address",
          "name": "to",
          "type": "address"
        },
        {
          "internalType": "uint256",
          "name": "tokenId",
          "type": "uint256"
        }
      ],
      "name": "safeTransferFrom",
      "outputs": [],
      "stateMutability": "nonpayable",
      "type": "function"
    },
    {
      "inputs": [
        {
          "internalType": "address",
          "name": "from",
          "type": "address"
        },
        {
          "internalType": "address",
          "name": "to",
          "type": "address"
        },
        {
          "internalType": "uint256",
          "name": "tokenId",
          "type": "uint256"
        },
        {
          "internalType": "bytes",
          "name": "data",
          "type": "bytes"
        }
      ],
      "name": "safeTransferFrom",
      "outputs": [],
      "stateMutability": "nonpayable",
      "type": "function"
    },
    {
      "inputs": [
        {
          "internalType": "address",
          "name": "operator",
          "type": "address"
        },
        {
          "internalType": "bool",
          "name": "approved",
          "type": "bool"
        }
      ],
      "name": "setApprovalForAll",
      "outputs": [],
      "stateMutability": "nonpayable",
      "type": "function"
    },
    {
      "inputs": [
        {
          "internalType": "bytes4",
          "name": "interfaceId",
          "type": "bytes4"
        }
      ],
      "name": "supportsInterface",
      "outputs": [
        {
          "internalType": "bool",
          "name": "",
          "type": "bool"
        }
      ],
      "stateMutability": "view",
      "type": "function"
    },
    {
      "inputs": [],
      "name": "symbol",
      "outputs": [
        {
          "internalType": "string",
          "name": "",
          "type": "string"
        }
      ],
      "stateMutability": "view",
      "type": "function"
    },
    {
      "inputs": [],
      "name": "tokenCounter",
      "outputs": [
        {
          "internalType": "uint256",
          "name": "",
          "type": "uint256"
        }
      ],
      "stateMutability": "view",
      "type": "function"
    },
    {
      "inputs": [
        {
          "internalType": "uint256",
          "name": "tokenId",
          "type": "uint256"
        }
      ],
      "name": "tokenURI",
      "outputs": [
        {
          "internalType": "string",
          "name": "",
          "type": "string"
        }
      ],
      "stateMutability": "view",
      "type": "function"
    },
    {
      "inputs": [
        {
          "internalType": "address",
          "name": "from",
          "type": "address"
        },
        {
          "internalType": "address",
          "name": "to",
          "type": "address"
        },
        {
          "internalType": "uint256",
          "name": "tokenId",
          "type": "uint256"
        }
      ],
      "name": "transferFrom",
      "outputs": [],
      "stateMutability": "nonpayable",
      "type": "function"
    },
    {
      "inputs": [
        {
          "internalType": "address",
          "name": "newOwner",
          "type": "address"
        }
      ],
      "name": "transferOwnership",
      "outputs": [],
      "stateMutability": "nonpayable",
      "type": "function"
    },
    {
      "inputs": [
        {
          "internalType": "string",
          "name": "tokenURI",
          "type": "string"
        }
      ],
      "name": "createToken",
      "outputs": [
        {
          "internalType": "uint256",
          "name": "",
          "type": "uint256"
        }
      ],
      "stateMutability": "nonpayable",
      "type": "function"
    }
  ],
  "bytecode": "0x608060405234801562000010575f80fd5b50336040518060400160405280600881526020017f566964656f4e46540000000000000000000000000000000000000000000000008152506040518060400160405280600481526020017f564e465400000000000000000000000000000000000000000000000000000000815250815f90816200008e91906200045c565b508060019081620000a091906200045c565b5050505f73ffffffffffffffffffffffffffffffffffffffff168173ffffffffffffffffffffffffffffffffffffffff160362000116575f6040517f1e4fbdf70000000000000000000000000000000000000000000000000000000081526004016200010d919062000583565b60405180910390fd5b62000127816200013560201b60201c565b505f6008819055506200059e565b5f60075f9054906101000a900473ffffffffffffffffffffffffffffffffffffffff1690508160075f6101000a81548173ffffffffffffffffffffffffffffffffffffffff021916908373ffffffffffffffffffffffffffffffffffffffff1602179055508173ffffffffffffffffffffffffffffffffffffffff168173ffffffffffffffffffffffffffffffffffffffff167f8be0079c531659141344cd1fd0a4f28419497f9722a3daafe3b4186f6b6457e060405160405180910390a35050565b5f81519050919050565b7f4e487b71000000000000000000000000000000000000000000000000000000005f52604160045260245ffd5b7f4e487b71000000000000000000000000000000000000000000000000000000005f52602260045260245ffd5b5f60028204905060018216806200027457607f821691505b6020821081036200028a57620002896200022f565b5b50919050565b5f819050815f5260205f209050919050565b5f6020601f8301049050919050565b5f82821b905092915050565b5f60088302620002ee7fffffffffffffffffffffffffffffffffffffffffffffffffffffffffffffffff82620002b1565b620002fa8683620002b1565b95508019841693508086168417925050509392505050565b5f819050919050565b5f819050919050565b5f620003446200033e620003388462000312565b6200031b565b62000312565b9050919050565b5f819050919050565b6200035f8362000324565b620003776200036e826200034b565b848454620002bd565b825550505050565b5f90565b6200038d6200037f565b6200039a81848462000354565b505050565b5b81811015620003c157620003b55f8262000383565b600181019050620003a0565b5050565b601f8211156200041057620003da8162000290565b620003e584620002a2565b81016020851015620003f5578190505b6200040d6200040485620002a2565b8301826200039f565b50505b505050565b5f82821c905092915050565b5f620004325f198460080262000415565b1980831691505092915050565b5f6200044c838362000421565b9150826002028217905092915050565b6200046782620001f8565b67ffffffffffffffff81111562000483576200048262000202565b5b6200048f82546200025c565b6200049c828285620003c5565b5f60209050601f831160018114620004d2575f8415620004bd578287015190505b620004c985826200043f565b86555062000538565b601f198416620004e28662000290565b5f5b828110156200050b57848901518255600182019150602085019450602081019050620004e4565b868310156200052b578489015162000527601f89168262000421565b8355505b6001600288020188555050505b505050505050565b5f73ffffffffffffffffffffffffffffffffffffffff82169050919050565b5f6200056b8262000540565b9050919050565b6200057d816200055f565b82525050565b5f602082019050620005985f83018462000572565b92915050565b6125a480620005ac5f395ff3fe608060405234801561000f575f80fd5b5060043610610114575f3560e01c8063715018a6116100a0578063b88d4fde1161006f578063b88d4fde146102dc578063c87b56dd146102f8578063d082e38114610328578063e985e9c514610346578063f2fde38b1461037657610114565b8063715018a61461027a5780638da5cb5b1461028457806395d89b41146102a2578063a22cb465146102c057610114565b806323b872dd116100e757806323b872dd146101b257806342842e0e146101ce57806345576f94146101ea5780636352211e1461021a57806370a082311461024a57610114565b806301ffc9a71461011857806306fdde0314610148578063081812fc14610166578063095ea7b314610196575b5f80fd5b610132600480360381019061012d9190611a84565b610392565b60405161013f9190611ac9565b60405180910390f35b6101506103f2565b60405161015d9190611b6c565b60405180910390f35b610180600480360381019061017b9190611bbf565b610481565b60405161018d9190611c29565b60405180910390f35b6101b060048036038101906101ab9190611c6c565b61049c565b005b6101cc60048036038101906101c79190611caa565b6104b2565b005b6101e860048036038101906101e39190611caa565b6105b1565b005b61020460048036038101906101ff9190611e26565b6105d0565b6040516102119190611e7c565b60405180910390f35b610234600480360381019061022f9190611bbf565b61060d565b6040516102419190611c29565b60405180910390f35b610264600480360381019061025f9190611e95565b61061e565b6040516102719190611e7c565b60405180910390f35b6102826106d4565b005b61028c6106e7565b6040516102999190611c29565b60405180910390f35b6102aa61070f565b6040516102b79190611b6c565b60405180910390f35b6102da60048036038101906102d59190611eea565b61079f565b005b6102f660048036038101906102f19190611fc6565b6107b5565b005b610312600480360381019061030d9190611bbf565b6107d2565b60405161031f9190611b6c565b60405180910390f35b6103306108dd565b60405161033d9190611e7c565b60405180910390f35b610360600480360381019061035b9190612046565b6108e3565b60405161036d9190611ac9565b60405180910390f35b610390600480360381019061038b9190611e95565b610971565b005b5f634906490660e01b7bffffffffffffffffffffffffffffffffffffffffffffffffffffffff1916827bffffffffffffffffffffffffffffffffffffffffffffffffffffffff191614806103eb57506103ea826109f5565b5b9050919050565b60605f8054610400906120b1565b80601f016020809104026020016040519081016040528092919081815260200182805461042c906120b1565b80156104775780601f1061044e57610100808354040283529160200191610477565b820191905f5260205f20905b81548152906001019060200180831161045a57829003601f168201915b5050505050905090565b5f61048b82610ad6565b5061049582610b5c565b9050919050565b6104ae82826104a9610b95565b610b9c565b5050565b5f73ffffffffffffffffffffffffffffffffffffffff168273ffffffffffffffffffffffffffffffffffffffff1603610522575f6040517f64a0ae920000000000000000000000000000000000000000000000000000000081526004016105199190611c29565b60405180910390fd5b5f6105358383610530610b95565b610bae565b90508373ffffffffffffffffffffffffffffffffffffffff168173ffffffffffffffffffffffffffffffffffffffff16146105ab578382826040517f64283d7b0000000000000000000000000000000000000000000000000000000081526004016105a2939291906120e1565b60405180910390fd5b50505050565b6105cb83838360405180602001604052805f8152506107b5565b505050565b5f8060085490506105e13382610db9565b6105eb8184610dd6565b600160085f8282546105fd9190612143565b9250508190555080915050919050565b5f61061782610ad6565b9050919050565b5f8073ffffffffffffffffffffffffffffffffffffffff168273ffffffffffffffffffffffffffffffffffffffff160361068f575f6040517f89c62b640000000000000000000000000000000000000000000000000000000081526004016106869190611c29565b60405180910390fd5b60035f8373ffffffffffffffffffffffffffffffffffffffff1673ffffffffffffffffffffffffffffffffffffffff1681526020019081526020015f20549050919050565b6106dc610e30565b6106e55f610eb7565b565b5f60075f9054906101000a900473ffffffffffffffffffffffffffffffffffffffff16905090565b60606001805461071e906120b1565b80601f016020809104026020016040519081016040528092919081815260200182805461074a906120b1565b80156107955780601f1061076c57610100808354040283529160200191610795565b820191905f5260205f20905b81548152906001019060200180831161077857829003601f168201915b5050505050905090565b6107b16107aa610b95565b8383610f7a565b5050565b6107c08484846104b2565b6107cc848484846110e3565b50505050565b60606107dd82610ad6565b505f60065f8481526020019081526020015f2080546107fb906120b1565b80601f0160208091040260200160405190810160405280929190818152602001828054610827906120b1565b80156108725780601f1061084957610100808354040283529160200191610872565b820191905f5260205f20905b81548152906001019060200180831161085557829003601f168201915b505050505090505f610882611295565b90505f8151036108965781925050506108d8565b5f825111156108ca5780826040516020016108b29291906121b0565b604051602081830303815290604052925050506108d8565b6108d3846112ab565b925050505b919050565b60085481565b5f60055f8473ffffffffffffffffffffffffffffffffffffffff1673ffffffffffffffffffffffffffffffffffffffff1681526020019081526020015f205f8373ffffffffffffffffffffffffffffffffffffffff1673ffffffffffffffffffffffffffffffffffffffff1681526020019081526020015f205f9054906101000a900460ff16905092915050565b610979610e30565b5f73ffffffffffffffffffffffffffffffffffffffff168173ffffffffffffffffffffffffffffffffffffffff16036109e9575f6040517f1e4fbdf70000000000000000000000000000000000000000000000000000000081526004016109e09190611c29565b60405180910390fd5b6109f281610eb7565b50565b5f7f80ac58cd000000000000000000000000000000000000000000000000000000007bffffffffffffffffffffffffffffffffffffffffffffffffffffffff1916827bffffffffffffffffffffffffffffffffffffffffffffffffffffffff19161480610abf57507f5b5e139f000000000000000000000000000000000000000000000000000000007bffffffffffffffffffffffffffffffffffffffffffffffffffffffff1916827bffffffffffffffffffffffffffffffffffffffffffffffffffffffff1916145b80610acf5750610ace82611311565b5b9050919050565b5f80610ae18361137a565b90505f73ffffffffffffffffffffffffffffffffffffffff168173ffffffffffffffffffffffffffffffffffffffff1603610b5357826040517f7e273289000000000000000000000000000000000000000000000000000000008152600401610b4a9190611e7c565b60405180910390fd5b80915050919050565b5f60045f8381526020019081526020015f205f9054906101000a900473ffffffffffffffffffffffffffffffffffffffff169050919050565b5f33905090565b610ba983838360016113b3565b505050565b5f80610bb98461137a565b90505f73ffffffffffffffffffffffffffffffffffffffff168373ffffffffffffffffffffffffffffffffffffffff1614610bfa57610bf9818486611572565b5b5f73ffffffffffffffffffffffffffffffffffffffff168173ffffffffffffffffffffffffffffffffffffffff1614610c8557610c395f855f806113b3565b600160035f8373ffffffffffffffffffffffffffffffffffffffff1673ffffffffffffffffffffffffffffffffffffffff1681526020019081526020015f205f82825403925050819055505b5f73ffffffffffffffffffffffffffffffffffffffff168573ffffffffffffffffffffffffffffffffffffffff1614610d0457600160035f8773ffffffffffffffffffffffffffffffffffffffff1673ffffffffffffffffffffffffffffffffffffffff1681526020019081526020015f205f82825401925050819055505b8460025f8681526020019081526020015f205f6101000a81548173ffffffffffffffffffffffffffffffffffffffff021916908373ffffffffffffffffffffffffffffffffffffffff160217905550838573ffffffffffffffffffffffffffffffffffffffff168273ffffffffffffffffffffffffffffffffffffffff167fddf252ad1be2c89b69c2b068fc378daa952ba7f163c4a11628f55a4df523b3ef60405160405180910390a4809150509392505050565b610dd2828260405180602001604052805f815250611635565b5050565b8060065f8481526020019081526020015f209081610df49190612370565b507ff8e1a15aba9398e019f0b49df1a4fde98ee17ae345cb5f6b5e2c27f5033e8ce782604051610e249190611e7c565b60405180910390a15050565b610e38610b95565b73ffffffffffffffffffffffffffffffffffffffff16610e566106e7565b73ffffffffffffffffffffffffffffffffffffffff1614610eb557610e79610b95565b6040517f118cdaa7000000000000000000000000000000000000000000000000000000008152600401610eac9190611c29565b60405180910390fd5b565b5f60075f9054906101000a900473ffffffffffffffffffffffffffffffffffffffff1690508160075f6101000a81548173ffffffffffffffffffffffffffffffffffffffff021916908373ffffffffffffffffffffffffffffffffffffffff1602179055508173ffffffffffffffffffffffffffffffffffffffff168173ffffffffffffffffffffffffffffffffffffffff167f8be0079c531659141344cd1fd0a4f28419497f9722a3daafe3b4186f6b6457e060405160405180910390a35050565b5f73ffffffffffffffffffffffffffffffffffffffff168273ffffffffffffffffffffffffffffffffffffffff1603610fea57816040517f5b08ba18000000000000000000000000000000000000000000000000000000008152600401610fe19190611c29565b60405180910390fd5b8060055f8573ffffffffffffffffffffffffffffffffffffffff1673ffffffffffffffffffffffffffffffffffffffff1681526020019081526020015f205f8473ffffffffffffffffffffffffffffffffffffffff1673ffffffffffffffffffffffffffffffffffffffff1681526020019081526020015f205f6101000a81548160ff0219169083151502179055508173ffffffffffffffffffffffffffffffffffffffff168373ffffffffffffffffffffffffffffffffffffffff167f17307eab39ab6107e8899845ad3d59bd9653f200f220920489ca2b5937696c31836040516110d69190611ac9565b60405180910390a3505050565b5f8373ffffffffffffffffffffffffffffffffffffffff163b111561128f578273ffffffffffffffffffffffffffffffffffffffff1663150b7a02611126610b95565b8685856040518563ffffffff1660e01b81526004016111489493929190612491565b6020604051808303815f875af192505050801561118357506040513d601f19601f8201168201806040525081019061118091906124ef565b60015b611204573d805f81146111b1576040519150601f19603f3d011682016040523d82523d5f602084013e6111b6565b606091505b505f8151036111fc57836040517f64a0ae920000000000000000000000000000000000000000000000000000000081526004016111f39190611c29565b60405180910390fd5b805181602001fd5b63150b7a0260e01b7bffffffffffffffffffffffffffffffffffffffffffffffffffffffff1916817bffffffffffffffffffffffffffffffffffffffffffffffffffffffff19161461128d57836040517f64a0ae920000000000000000000000000000000000000000000000000000000081526004016112849190611c29565b60405180910390fd5b505b50505050565b606060405180602001604052805f815250905090565b60606112b682610ad6565b505f6112c0611295565b90505f8151116112de5760405180602001604052805f815250611309565b806112e884611650565b6040516020016112f99291906121b0565b6040516020818303038152906040525b915050919050565b5f7f01ffc9a7000000000000000000000000000000000000000000000000000000007bffffffffffffffffffffffffffffffffffffffffffffffffffffffff1916827bffffffffffffffffffffffffffffffffffffffffffffffffffffffff1916149050919050565b5f60025f8381526020019081526020015f205f9054906101000a900473ffffffffffffffffffffffffffffffffffffffff169050919050565b80806113eb57505f73ffffffffffffffffffffffffffffffffffffffff168273ffffffffffffffffffffffffffffffffffffffff1614155b1561151d575f6113fa84610ad6565b90505f73ffffffffffffffffffffffffffffffffffffffff168373ffffffffffffffffffffffffffffffffffffffff161415801561146457508273ffffffffffffffffffffffffffffffffffffffff168173ffffffffffffffffffffffffffffffffffffffff1614155b8015611477575061147581846108e3565b155b156114b957826040517fa9fbf51f0000000000000000000000000000000000000000000000000000000081526004016114b09190611c29565b60405180910390fd5b811561151b57838573ffffffffffffffffffffffffffffffffffffffff168273ffffffffffffffffffffffffffffffffffffffff167f8c5be1e5ebec7d5bd14f71427d1e84f3dd0314c0f7b2291e5b200ac8c7c3b92560405160405180910390a45b505b8360045f8581526020019081526020015f205f6101000a81548173ffffffffffffffffffffffffffffffffffffffff021916908373ffffffffffffffffffffffffffffffffffffffff16021790555050505050565b61157d83838361171a565b611630575f73ffffffffffffffffffffffffffffffffffffffff168373ffffffffffffffffffffffffffffffffffffffff16036115f157806040517f7e2732890000000000000000000000000000000000000000000000000000000081526004016115e89190611e7c565b60405180910390fd5b81816040517f177e802f00000000000000000000000000000000000000000000000000000000815260040161162792919061251a565b60405180910390fd5b505050565b61163f83836117da565b61164b5f8484846110e3565b505050565b60605f600161165e846118cd565b0190505f8167ffffffffffffffff81111561167c5761167b611d02565b5b6040519080825280601f01601f1916602001820160405280156116ae5781602001600182028036833780820191505090505b5090505f82602001820190505b60011561170f578080600190039150507f3031323334353637383961626364656600000000000000000000000000000000600a86061a8153600a858161170457611703612541565b5b0494505f85036116bb575b819350505050919050565b5f8073ffffffffffffffffffffffffffffffffffffffff168373ffffffffffffffffffffffffffffffffffffffff16141580156117d157508273ffffffffffffffffffffffffffffffffffffffff168473ffffffffffffffffffffffffffffffffffffffff161480611792575061179184846108e3565b5b806117d057508273ffffffffffffffffffffffffffffffffffffffff166117b883610b5c565b73ffffffffffffffffffffffffffffffffffffffff16145b5b90509392505050565b5f73ffffffffffffffffffffffffffffffffffffffff168273ffffffffffffffffffffffffffffffffffffffff160361184a575f6040517f64a0ae920000000000000000000000000000000000000000000000000000000081526004016118419190611c29565b60405180910390fd5b5f61185683835f610bae565b90505f73ffffffffffffffffffffffffffffffffffffffff168173ffffffffffffffffffffffffffffffffffffffff16146118c8575f6040517f73c6ac6e0000000000000000000000000000000000000000000000000000000081526004016118bf9190611c29565b60405180910390fd5b505050565b5f805f90507a184f03e93ff9f4daa797ed6e38ed64bf6a1f0100000000000000008310611929577a184f03e93ff9f4daa797ed6e38ed64bf6a1f010000000000000000838161191f5761191e612541565b5b0492506040810190505b6d04ee2d6d415b85acef81000000008310611966576d04ee2d6d415b85acef8100000000838161195c5761195b612541565b5b0492506020810190505b662386f26fc10000831061199557662386f26fc10000838161198b5761198a612541565b5b0492506010810190505b6305f5e10083106119be576305f5e10083816119b4576119b3612541565b5b0492506008810190505b61271083106119e35761271083816119d9576119d8612541565b5b0492506004810190505b60648310611a0657606483816119fc576119fb612541565b5b0492506002810190505b600a8310611a15576001810190505b80915050919050565b5f604051905090565b5f80fd5b5f80fd5b5f7fffffffff0000000000000000000000000000000000000000000000000000000082169050919050565b611a6381611a2f565b8114611a6d575f80fd5b50565b5f81359050611a7e81611a5a565b92915050565b5f60208284031215611a9957611a98611a27565b5b5f611aa684828501611a70565b91505092915050565b5f8115159050919050565b611ac381611aaf565b82525050565b5f602082019050611adc5f830184611aba565b92915050565b5f81519050919050565b5f82825260208201905092915050565b5f5b83811015611b19578082015181840152602081019050611afe565b5f8484015250505050565b5f601f19601f8301169050919050565b5f611b3e82611ae2565b611b488185611aec565b9350611b58818560208601611afc565b611b6181611b24565b840191505092915050565b5f6020820190508181035f830152611b848184611b34565b905092915050565b5f819050919050565b611b9e81611b8c565b8114611ba8575f80fd5b50565b5f81359050611bb981611b95565b92915050565b5f60208284031215611bd457611bd3611a27565b5b5f611be184828501611bab565b91505092915050565b5f73ffffffffffffffffffffffffffffffffffffffff82169050919050565b5f611c1382611bea565b9050919050565b611c2381611c09565b82525050565b5f602082019050611c3c5f830184611c1a565b92915050565b611c4b81611c09565b8114611c55575f80fd5b50565b5f81359050611c6681611c42565b92915050565b5f8060408385031215611c8257611c81611a27565b5b5f611c8f85828601611c58565b9250506020611ca085828601611bab565b9150509250929050565b5f805f60608486031215611cc157611cc0611a27565b5b5f611cce86828701611c58565b9350506020611cdf86828701611c58565b9250506040611cf086828701611bab565b9150509250925092565b5f80fd5b5f80fd5b7f4e487b71000000000000000000000000000000000000000000000000000000005f52604160045260245ffd5b611d3882611b24565b810181811067ffffffffffffffff82111715611d5757611d56611d02565b5b80604052505050565b5f611d69611a1e565b9050611d758282611d2f565b919050565b5f67ffffffffffffffff821115611d9457611d93611d02565b5b611d9d82611b24565b9050602081019050919050565b828183375f83830152505050565b5f611dca611dc584611d7a565b611d60565b905082815260208101848484011115611de657611de5611cfe565b5b611df1848285611daa565b509392505050565b5f82601f830112611e0d57611e0c611cfa565b5b8135611e1d848260208601611db8565b91505092915050565b5f60208284031215611e3b57611e3a611a27565b5b5f82013567ffffffffffffffff811115611e5857611e57611a2b565b5b611e6484828501611df9565b91505092915050565b611e7681611b8c565b82525050565b5f602082019050611e8f5f830184611e6d565b92915050565b5f60208284031215611eaa57611ea9611a27565b5b5f611eb784828501611c58565b91505092915050565b611ec981611aaf565b8114611ed3575f80fd5b50565b5f81359050611ee481611ec0565b92915050565b5f8060408385031215611f0057611eff611a27565b5b5f611f0d85828601611c58565b9250506020611f1e85828601611ed6565b9150509250929050565b5f67ffffffffffffffff821115611f4257611f41611d02565b5b611f4b82611b24565b9050602081019050919050565b5f611f6a611f6584611f28565b611d60565b905082815260208101848484011115611f8657611f85611cfe565b5b611f91848285611daa565b509392505050565b5f82601f830112611fad57611fac611cfa565b5b8135611fbd848260208601611f58565b91505092915050565b5f805f8060808587031215611fde57611fdd611a27565b5b5f611feb87828801611c58565b9450506020611ffc87828801611c58565b935050604061200d87828801611bab565b925050606085013567ffffffffffffffff81111561202e5761202d611a2b565b5b61203a87828801611f99565b91505092959194509250565b5f806040838503121561205c5761205b611a27565b5b5f61206985828601611c58565b925050602061207a85828601611c58565b9150509250929050565b7f4e487b71000000000000000000000000000000000000000000000000000000005f52602260045260245ffd5b5f60028204905060018216806120c857607f821691505b6020821081036120db576120da612084565b5b50919050565b5f6060820190506120f45f830186611c1a565b6121016020830185611e6d565b61210e6040830184611c1a565b949350505050565b7f4e487b71000000000000000000000000000000000000000000000000000000005f52601160045260245ffd5b5f61214d82611b8c565b915061215883611b8c565b92508282019050808211156121705761216f612116565b5b92915050565b5f81905092915050565b5f61218a82611ae2565b6121948185612176565b93506121a4818560208601611afc565b80840191505092915050565b5f6121bb8285612180565b91506121c78284612180565b91508190509392505050565b5f819050815f5260205f209050919050565b5f6020601f8301049050919050565b5f82821b905092915050565b5f6008830261222f7fffffffffffffffffffffffffffffffffffffffffffffffffffffffffffffffff826121f4565b61223986836121f4565b95508019841693508086168417925050509392505050565b5f819050919050565b5f61227461226f61226a84611b8c565b612251565b611b8c565b9050919050565b5f819050919050565b61228d8361225a565b6122a16122998261227b565b848454612200565b825550505050565b5f90565b6122b56122a9565b6122c0818484612284565b505050565b5b818110156122e3576122d85f826122ad565b6001810190506122c6565b5050565b601f821115612328576122f9816121d3565b612302846121e5565b81016020851015612311578190505b61232561231d856121e5565b8301826122c5565b50505b505050565b5f82821c905092915050565b5f6123485f198460080261232d565b1980831691505092915050565b5f6123608383612339565b9150826002028217905092915050565b61237982611ae2565b67ffffffffffffffff81111561239257612391611d02565b5b61239c82546120b1565b6123a78282856122e7565b5f60209050601f8311600181146123d8575f84156123c6578287015190505b6123d08582612355565b865550612437565b601f1984166123e6866121d3565b5f5b8281101561240d578489015182556001820191506020850194506020810190506123e8565b8683101561242a5784890151612426601f891682612339565b8355505b6001600288020188555050505b505050505050565b5f81519050919050565b5f82825260208201905092915050565b5f6124638261243f565b61246d8185612449565b935061247d818560208601611afc565b61248681611b24565b840191505092915050565b5f6080820190506124a45f830187611c1a565b6124b16020830186611c1a565b6124be6040830185611e6d565b81810360608301526124d08184612459565b905095945050505050565b5f815190506124e981611a5a565b92915050565b5f6020828403121561250457612503611a27565b5b5f612511848285016124db565b91505092915050565b5f60408201905061252d5f830185611c1a565b61253a6020830184611e6d565b9392505050565b7f4e487b71000000000000000000000000000000000000000000000000000000005f52601260045260245ffdfea2646970667358221220b08e762be154301fce27e1cb29b97bcd9164ef500b864c9db8635ca91015611864736f6c63430008150033",
  "immutableReferences": {},
  "source": "// SPDX-License-Identifier: MIT\r\npragma solidity ^0.8.0;\r\n\r\nimport \"@openzeppelin/contracts/token/ERC721/extensions/ERC721URIStorage.sol\";\r\nimport \"@openzeppelin/contracts/access/Ownable.sol\";\r\n\r\ncontract VideoNFT is ERC721URIStorage, Ownable {\r\n    uint256 public tokenCounter;\r\n\r\n    constructor() ERC721(\"VideoNFT\", \"VNFT\") Ownable(msg.sender) {\r\n        tokenCounter = 0;\r\n    }\r\n\r\n    function createToken(string memory tokenURI) public returns (uint256) {\r\n        uint256 newItemId = tokenCounter;\r\n        _safeMint(msg.sender, newItemId);\r\n        _setTokenURI(newItemId, tokenURI);\r\n        tokenCounter += 1;\r\n        return newItemId;\r\n    }\r\n}\r\n",
  "sourcePath": "C:\\Users\\fredt\\decentralized-video-platform\\contracts\\contracts\\VideoNFT.sol",
  "compiler": {
    "name": "solc",
    "version": "0.8.21+commit.d9974bed.Emscripten.clang"
  },
  "schemaVersion": "3.4.16",
  "updatedAt": "2024-07-24T06:16:23.637Z",
  "devdoc": {
    "errors": {
      "ERC721IncorrectOwner(address,uint256,address)": [
        {
          "details": "Indicates an error related to the ownership over a particular token. Used in transfers.",
          "params": {
            "owner": "Address of the current owner of a token.",
            "sender": "Address whose tokens are being transferred.",
            "tokenId": "Identifier number of a token."
          }
        }
      ],
      "ERC721InsufficientApproval(address,uint256)": [
        {
          "details": "Indicates a failure with the `operator`s approval. Used in transfers.",
          "params": {
            "operator": "Address that may be allowed to operate on tokens without being their owner.",
            "tokenId": "Identifier number of a token."
          }
        }
      ],
      "ERC721InvalidApprover(address)": [
        {
          "details": "Indicates a failure with the `approver` of a token to be approved. Used in approvals.",
          "params": {
            "approver": "Address initiating an approval operation."
          }
        }
      ],
      "ERC721InvalidOperator(address)": [
        {
          "details": "Indicates a failure with the `operator` to be approved. Used in approvals.",
          "params": {
            "operator": "Address that may be allowed to operate on tokens without being their owner."
          }
        }
      ],
      "ERC721InvalidOwner(address)": [
        {
          "details": "Indicates that an address can't be an owner. For example, `address(0)` is a forbidden owner in EIP-20. Used in balance queries.",
          "params": {
            "owner": "Address of the current owner of a token."
          }
        }
      ],
      "ERC721InvalidReceiver(address)": [
        {
          "details": "Indicates a failure with the token `receiver`. Used in transfers.",
          "params": {
            "receiver": "Address to which tokens are being transferred."
          }
        }
      ],
      "ERC721InvalidSender(address)": [
        {
          "details": "Indicates a failure with the token `sender`. Used in transfers.",
          "params": {
            "sender": "Address whose tokens are being transferred."
          }
        }
      ],
      "ERC721NonexistentToken(uint256)": [
        {
          "details": "Indicates a `tokenId` whose `owner` is the zero address.",
          "params": {
            "tokenId": "Identifier number of a token."
          }
        }
      ],
      "OwnableInvalidOwner(address)": [
        {
          "details": "The owner is not a valid owner account. (eg. `address(0)`)"
        }
      ],
      "OwnableUnauthorizedAccount(address)": [
        {
          "details": "The caller account is not authorized to perform an operation."
        }
      ]
    },
    "events": {
      "Approval(address,address,uint256)": {
        "details": "Emitted when `owner` enables `approved` to manage the `tokenId` token."
      },
      "ApprovalForAll(address,address,bool)": {
        "details": "Emitted when `owner` enables or disables (`approved`) `operator` to manage all of its assets."
      },
      "BatchMetadataUpdate(uint256,uint256)": {
        "details": "This event emits when the metadata of a range of tokens is changed. So that the third-party platforms such as NFT market could timely update the images and related attributes of the NFTs."
      },
      "MetadataUpdate(uint256)": {
        "details": "This event emits when the metadata of a token is changed. So that the third-party platforms such as NFT market could timely update the images and related attributes of the NFT."
      },
      "Transfer(address,address,uint256)": {
        "details": "Emitted when `tokenId` token is transferred from `from` to `to`."
      }
    },
    "kind": "dev",
    "methods": {
      "approve(address,uint256)": {
        "details": "See {IERC721-approve}."
      },
      "balanceOf(address)": {
        "details": "See {IERC721-balanceOf}."
      },
      "getApproved(uint256)": {
        "details": "See {IERC721-getApproved}."
      },
      "isApprovedForAll(address,address)": {
        "details": "See {IERC721-isApprovedForAll}."
      },
      "name()": {
        "details": "See {IERC721Metadata-name}."
      },
      "owner()": {
        "details": "Returns the address of the current owner."
      },
      "ownerOf(uint256)": {
        "details": "See {IERC721-ownerOf}."
      },
      "renounceOwnership()": {
        "details": "Leaves the contract without owner. It will not be possible to call `onlyOwner` functions. Can only be called by the current owner. NOTE: Renouncing ownership will leave the contract without an owner, thereby disabling any functionality that is only available to the owner."
      },
      "safeTransferFrom(address,address,uint256)": {
        "details": "See {IERC721-safeTransferFrom}."
      },
      "safeTransferFrom(address,address,uint256,bytes)": {
        "details": "See {IERC721-safeTransferFrom}."
      },
      "setApprovalForAll(address,bool)": {
        "details": "See {IERC721-setApprovalForAll}."
      },
      "supportsInterface(bytes4)": {
        "details": "See {IERC165-supportsInterface}"
      },
      "symbol()": {
        "details": "See {IERC721Metadata-symbol}."
      },
      "tokenURI(uint256)": {
        "details": "See {IERC721Metadata-tokenURI}."
      },
      "transferFrom(address,address,uint256)": {
        "details": "See {IERC721-transferFrom}."
      },
      "transferOwnership(address)": {
        "details": "Transfers ownership of the contract to a new account (`newOwner`). Can only be called by the current owner."
      }
    },
    "version": 1
  },
  "userdoc": {
    "kind": "user",
    "methods": {},
    "version": 1
  }
}